{
  "_format": "hh-sol-artifact-1",
  "contractName": "TokenFactory",
  "sourceName": "contracts/TokenFactory.sol",
  "abi": [
    {
      "anonymous": false,
      "inputs": [
        {
          "indexed": false,
          "internalType": "address",
          "name": "tokenAddress",
          "type": "address"
        },
        {
          "indexed": false,
          "internalType": "string",
          "name": "name",
          "type": "string"
        },
        {
          "indexed": false,
          "internalType": "string",
          "name": "symbol",
          "type": "string"
        },
        {
          "indexed": false,
          "internalType": "address",
          "name": "founder",
          "type": "address"
        }
      ],
      "name": "TokenLaunched",
      "type": "event"
    },
    {
      "inputs": [
        {
          "internalType": "uint256",
          "name": "",
          "type": "uint256"
        }
      ],
      "name": "allTokens",
      "outputs": [
        {
          "internalType": "address",
          "name": "",
          "type": "address"
        }
      ],
      "stateMutability": "view",
      "type": "function"
    },
    {
      "inputs": [],
      "name": "getAllTokens",
      "outputs": [
        {
          "internalType": "address[]",
          "name": "",
          "type": "address[]"
        }
      ],
      "stateMutability": "view",
      "type": "function"
    },
    {
      "inputs": [
        {
          "internalType": "string",
          "name": "name",
          "type": "string"
        },
        {
          "internalType": "string",
          "name": "symbol",
          "type": "string"
        },
        {
          "internalType": "uint256",
          "name": "supply",
          "type": "uint256"
        }
      ],
      "name": "launchToken",
      "outputs": [
        {
          "internalType": "address",
          "name": "",
          "type": "address"
        }
      ],
      "stateMutability": "nonpayable",
      "type": "function"
    }
  ],
  "bytecode": "0x608060405234801561001057600080fd5b5061219b806100206000396000f3fe60806040523480156200001157600080fd5b5060043610620000465760003560e01c80632a5c792a146200004b5780634bf2dcd8146200006d578063634282af14620000a3575b600080fd5b62000055620000d9565b604051620000649190620003aa565b60405180910390f35b6200008b60048036038101906200008591906200057f565b62000169565b6040516200009a91906200062a565b60405180910390f35b620000c16004803603810190620000bb919062000647565b6200025a565b604051620000d091906200062a565b60405180910390f35b606060008054806020026020016040519081016040528092919081815260200182805480156200015f57602002820191906000526020600020905b8160009054906101000a900473ffffffffffffffffffffffffffffffffffffffff1673ffffffffffffffffffffffffffffffffffffffff168152602001906001019080831162000114575b5050505050905090565b600080848484336040516200017e906200029a565b6200018d949392919062000713565b604051809103906000f080158015620001aa573d6000803e3d6000fd5b5090506000819080600181540180825580915050600190039060005260206000200160009091909190916101000a81548173ffffffffffffffffffffffffffffffffffffffff021916908373ffffffffffffffffffffffffffffffffffffffff1602179055507fe3b10feb4083662a6dba2542351b61bc6d65beddab11c513004984a0ccad73a2818686336040516200024794939291906200076e565b60405180910390a1809150509392505050565b600081815481106200026b57600080fd5b906000526020600020016000915054906101000a900473ffffffffffffffffffffffffffffffffffffffff1681565b61199c80620007ca83390190565b600081519050919050565b600082825260208201905092915050565b6000819050602082019050919050565b600073ffffffffffffffffffffffffffffffffffffffff82169050919050565b60006200030182620002d4565b9050919050565b6200031381620002f4565b82525050565b600062000327838362000308565b60208301905092915050565b6000602082019050919050565b60006200034d82620002a8565b620003598185620002b3565b93506200036683620002c4565b8060005b838110156200039d57815162000381888262000319565b97506200038e8362000333565b9250506001810190506200036a565b5085935050505092915050565b60006020820190508181036000830152620003c6818462000340565b905092915050565b6000604051905090565b600080fd5b600080fd5b600080fd5b600080fd5b6000601f19601f8301169050919050565b7f4e487b7100000000000000000000000000000000000000000000000000000000600052604160045260246000fd5b6200043782620003ec565b810181811067ffffffffffffffff82111715620004595762000458620003fd565b5b80604052505050565b60006200046e620003ce565b90506200047c82826200042c565b919050565b600067ffffffffffffffff8211156200049f576200049e620003fd565b5b620004aa82620003ec565b9050602081019050919050565b82818337600083830152505050565b6000620004dd620004d78462000481565b62000462565b905082815260208101848484011115620004fc57620004fb620003e7565b5b62000509848285620004b7565b509392505050565b600082601f830112620005295762000528620003e2565b5b81356200053b848260208601620004c6565b91505092915050565b6000819050919050565b620005598162000544565b81146200056557600080fd5b50565b60008135905062000579816200054e565b92915050565b6000806000606084860312156200059b576200059a620003d8565b5b600084013567ffffffffffffffff811115620005bc57620005bb620003dd565b5b620005ca8682870162000511565b935050602084013567ffffffffffffffff811115620005ee57620005ed620003dd565b5b620005fc8682870162000511565b92505060406200060f8682870162000568565b9150509250925092565b6200062481620002f4565b82525050565b600060208201905062000641600083018462000619565b92915050565b60006020828403121562000660576200065f620003d8565b5b6000620006708482850162000568565b91505092915050565b600081519050919050565b600082825260208201905092915050565b60005b83811015620006b557808201518184015260208101905062000698565b60008484015250505050565b6000620006ce8262000679565b620006da818562000684565b9350620006ec81856020860162000695565b620006f781620003ec565b840191505092915050565b6200070d8162000544565b82525050565b600060808201905081810360008301526200072f8187620006c1565b90508181036020830152620007458186620006c1565b905062000756604083018562000702565b62000765606083018462000619565b95945050505050565b600060808201905062000785600083018762000619565b8181036020830152620007998186620006c1565b90508181036040830152620007af8185620006c1565b9050620007c0606083018462000619565b9594505050505056fe60806040523480156200001157600080fd5b506040516200199c3803806200199c8339818101604052810190620000379190620005c1565b838381600390816200004a9190620008b2565b5080600490816200005c9190620008b2565b50505080600560006101000a81548173ffffffffffffffffffffffffffffffffffffffff021916908373ffffffffffffffffffffffffffffffffffffffff160217905550620000c730670de0b6b3a764000084620000bb9190620009c8565b620000d160201b60201c565b5050505062000ae7565b600073ffffffffffffffffffffffffffffffffffffffff168273ffffffffffffffffffffffffffffffffffffffff1603620001465760006040517fec442f050000000000000000000000000000000000000000000000000000000081526004016200013d919062000a24565b60405180910390fd5b6200015a600083836200015e60201b60201c565b5050565b600073ffffffffffffffffffffffffffffffffffffffff168373ffffffffffffffffffffffffffffffffffffffff1603620001b4578060026000828254620001a7919062000a41565b925050819055506200028a565b60008060008573ffffffffffffffffffffffffffffffffffffffff1673ffffffffffffffffffffffffffffffffffffffff1681526020019081526020016000205490508181101562000243578381836040517fe450d38c0000000000000000000000000000000000000000000000000000000081526004016200023a9392919062000a8d565b60405180910390fd5b8181036000808673ffffffffffffffffffffffffffffffffffffffff1673ffffffffffffffffffffffffffffffffffffffff16815260200190815260200160002081905550505b600073ffffffffffffffffffffffffffffffffffffffff168273ffffffffffffffffffffffffffffffffffffffff1603620002d5578060026000828254039250508190555062000322565b806000808473ffffffffffffffffffffffffffffffffffffffff1673ffffffffffffffffffffffffffffffffffffffff168152602001908152602001600020600082825401925050819055505b8173ffffffffffffffffffffffffffffffffffffffff168373ffffffffffffffffffffffffffffffffffffffff167fddf252ad1be2c89b69c2b068fc378daa952ba7f163c4a11628f55a4df523b3ef8360405162000381919062000aca565b60405180910390a3505050565b6000604051905090565b600080fd5b600080fd5b600080fd5b600080fd5b6000601f19601f8301169050919050565b7f4e487b7100000000000000000000000000000000000000000000000000000000600052604160045260246000fd5b620003f782620003ac565b810181811067ffffffffffffffff82111715620004195762000418620003bd565b5b80604052505050565b60006200042e6200038e565b90506200043c8282620003ec565b919050565b600067ffffffffffffffff8211156200045f576200045e620003bd565b5b6200046a82620003ac565b9050602081019050919050565b60005b83811015620004975780820151818401526020810190506200047a565b60008484015250505050565b6000620004ba620004b48462000441565b62000422565b905082815260208101848484011115620004d957620004d8620003a7565b5b620004e684828562000477565b509392505050565b600082601f830112620005065762000505620003a2565b5b815162000518848260208601620004a3565b91505092915050565b6000819050919050565b620005368162000521565b81146200054257600080fd5b50565b60008151905062000556816200052b565b92915050565b600073ffffffffffffffffffffffffffffffffffffffff82169050919050565b600062000589826200055c565b9050919050565b6200059b816200057c565b8114620005a757600080fd5b50565b600081519050620005bb8162000590565b92915050565b60008060008060808587031215620005de57620005dd62000398565b5b600085015167ffffffffffffffff811115620005ff57620005fe6200039d565b5b6200060d87828801620004ee565b945050602085015167ffffffffffffffff8111156200063157620006306200039d565b5b6200063f87828801620004ee565b9350506040620006528782880162000545565b92505060606200066587828801620005aa565b91505092959194509250565b600081519050919050565b7f4e487b7100000000000000000000000000000000000000000000000000000000600052602260045260246000fd5b60006002820490506001821680620006c457607f821691505b602082108103620006da57620006d96200067c565b5b50919050565b60008190508160005260206000209050919050565b60006020601f8301049050919050565b600082821b905092915050565b600060088302620007447fffffffffffffffffffffffffffffffffffffffffffffffffffffffffffffffff8262000705565b62000750868362000705565b95508019841693508086168417925050509392505050565b6000819050919050565b6000620007936200078d620007878462000521565b62000768565b62000521565b9050919050565b6000819050919050565b620007af8362000772565b620007c7620007be826200079a565b84845462000712565b825550505050565b600090565b620007de620007cf565b620007eb818484620007a4565b505050565b5b81811015620008135762000807600082620007d4565b600181019050620007f1565b5050565b601f82111562000862576200082c81620006e0565b6200083784620006f5565b8101602085101562000847578190505b6200085f6200085685620006f5565b830182620007f0565b50505b505050565b600082821c905092915050565b6000620008876000198460080262000867565b1980831691505092915050565b6000620008a2838362000874565b9150826002028217905092915050565b620008bd8262000671565b67ffffffffffffffff811115620008d957620008d8620003bd565b5b620008e58254620006ab565b620008f282828562000817565b600060209050601f8311600181146200092a576000841562000915578287015190505b62000921858262000894565b86555062000991565b601f1984166200093a86620006e0565b60005b8281101562000964578489015182556001820191506020850194506020810190506200093d565b8683101562000984578489015162000980601f89168262000874565b8355505b6001600288020188555050505b505050505050565b7f4e487b7100000000000000000000000000000000000000000000000000000000600052601160045260246000fd5b6000620009d58262000521565b9150620009e28362000521565b9250828202620009f28162000521565b9150828204841483151762000a0c5762000a0b62000999565b5b5092915050565b62000a1e816200057c565b82525050565b600060208201905062000a3b600083018462000a13565b92915050565b600062000a4e8262000521565b915062000a5b8362000521565b925082820190508082111562000a765762000a7562000999565b5b92915050565b62000a878162000521565b82525050565b600060608201905062000aa4600083018662000a13565b62000ab3602083018562000a7c565b62000ac2604083018462000a7c565b949350505050565b600060208201905062000ae1600083018462000a7c565b92915050565b610ea58062000af76000396000f3fe608060405234801561001057600080fd5b506004361061009e5760003560e01c80634d853ee5116100665780634d853ee51461015d57806370a082311461017b57806395d89b41146101ab578063a9059cbb146101c9578063dd62ed3e146101f95761009e565b806306fdde03146100a3578063095ea7b3146100c157806318160ddd146100f157806323b872dd1461010f578063313ce5671461013f575b600080fd5b6100ab610229565b6040516100b89190610af9565b60405180910390f35b6100db60048036038101906100d69190610bb4565b6102bb565b6040516100e89190610c0f565b60405180910390f35b6100f96102de565b6040516101069190610c39565b60405180910390f35b61012960048036038101906101249190610c54565b6102e8565b6040516101369190610c0f565b60405180910390f35b610147610317565b6040516101549190610cc3565b60405180910390f35b610165610320565b6040516101729190610ced565b60405180910390f35b61019560048036038101906101909190610d08565b610346565b6040516101a29190610c39565b60405180910390f35b6101b361038e565b6040516101c09190610af9565b60405180910390f35b6101e360048036038101906101de9190610bb4565b610420565b6040516101f09190610c0f565b60405180910390f35b610213600480360381019061020e9190610d35565b610443565b6040516102209190610c39565b60405180910390f35b60606003805461023890610da4565b80601f016020809104026020016040519081016040528092919081815260200182805461026490610da4565b80156102b15780601f10610286576101008083540402835291602001916102b1565b820191906000526020600020905b81548152906001019060200180831161029457829003601f168201915b5050505050905090565b6000806102c66104ca565b90506102d38185856104d2565b600191505092915050565b6000600254905090565b6000806102f36104ca565b90506103008582856104e4565b61030b858585610579565b60019150509392505050565b60006012905090565b600560009054906101000a900473ffffffffffffffffffffffffffffffffffffffff1681565b60008060008373ffffffffffffffffffffffffffffffffffffffff1673ffffffffffffffffffffffffffffffffffffffff168152602001908152602001600020549050919050565b60606004805461039d90610da4565b80601f01602080910402602001604051908101604052809291908181526020018280546103c990610da4565b80156104165780601f106103eb57610100808354040283529160200191610416565b820191906000526020600020905b8154815290600101906020018083116103f957829003601f168201915b5050505050905090565b60008061042b6104ca565b9050610438818585610579565b600191505092915050565b6000600160008473ffffffffffffffffffffffffffffffffffffffff1673ffffffffffffffffffffffffffffffffffffffff16815260200190815260200160002060008373ffffffffffffffffffffffffffffffffffffffff1673ffffffffffffffffffffffffffffffffffffffff16815260200190815260200160002054905092915050565b600033905090565b6104df838383600161066d565b505050565b60006104f08484610443565b90507fffffffffffffffffffffffffffffffffffffffffffffffffffffffffffffffff8110156105735781811015610563578281836040517ffb8f41b200000000000000000000000000000000000000000000000000000000815260040161055a93929190610dd5565b60405180910390fd5b6105728484848403600061066d565b5b50505050565b600073ffffffffffffffffffffffffffffffffffffffff168373ffffffffffffffffffffffffffffffffffffffff16036105eb5760006040517f96c6fd1e0000000000000000000000000000000000000000000000000000000081526004016105e29190610ced565b60405180910390fd5b600073ffffffffffffffffffffffffffffffffffffffff168273ffffffffffffffffffffffffffffffffffffffff160361065d5760006040517fec442f050000000000000000000000000000000000000000000000000000000081526004016106549190610ced565b60405180910390fd5b610668838383610844565b505050565b600073ffffffffffffffffffffffffffffffffffffffff168473ffffffffffffffffffffffffffffffffffffffff16036106df5760006040517fe602df050000000000000000000000000000000000000000000000000000000081526004016106d69190610ced565b60405180910390fd5b600073ffffffffffffffffffffffffffffffffffffffff168373ffffffffffffffffffffffffffffffffffffffff16036107515760006040517f94280d620000000000000000000000000000000000000000000000000000000081526004016107489190610ced565b60405180910390fd5b81600160008673ffffffffffffffffffffffffffffffffffffffff1673ffffffffffffffffffffffffffffffffffffffff16815260200190815260200160002060008573ffffffffffffffffffffffffffffffffffffffff1673ffffffffffffffffffffffffffffffffffffffff16815260200190815260200160002081905550801561083e578273ffffffffffffffffffffffffffffffffffffffff168473ffffffffffffffffffffffffffffffffffffffff167f8c5be1e5ebec7d5bd14f71427d1e84f3dd0314c0f7b2291e5b200ac8c7c3b925846040516108359190610c39565b60405180910390a35b50505050565b600073ffffffffffffffffffffffffffffffffffffffff168373ffffffffffffffffffffffffffffffffffffffff160361089657806002600082825461088a9190610e3b565b92505081905550610969565b60008060008573ffffffffffffffffffffffffffffffffffffffff1673ffffffffffffffffffffffffffffffffffffffff16815260200190815260200160002054905081811015610922578381836040517fe450d38c00000000000000000000000000000000000000000000000000000000815260040161091993929190610dd5565b60405180910390fd5b8181036000808673ffffffffffffffffffffffffffffffffffffffff1673ffffffffffffffffffffffffffffffffffffffff16815260200190815260200160002081905550505b600073ffffffffffffffffffffffffffffffffffffffff168273ffffffffffffffffffffffffffffffffffffffff16036109b257806002600082825403925050819055506109ff565b806000808473ffffffffffffffffffffffffffffffffffffffff1673ffffffffffffffffffffffffffffffffffffffff168152602001908152602001600020600082825401925050819055505b8173ffffffffffffffffffffffffffffffffffffffff168373ffffffffffffffffffffffffffffffffffffffff167fddf252ad1be2c89b69c2b068fc378daa952ba7f163c4a11628f55a4df523b3ef83604051610a5c9190610c39565b60405180910390a3505050565b600081519050919050565b600082825260208201905092915050565b60005b83811015610aa3578082015181840152602081019050610a88565b60008484015250505050565b6000601f19601f8301169050919050565b6000610acb82610a69565b610ad58185610a74565b9350610ae5818560208601610a85565b610aee81610aaf565b840191505092915050565b60006020820190508181036000830152610b138184610ac0565b905092915050565b600080fd5b600073ffffffffffffffffffffffffffffffffffffffff82169050919050565b6000610b4b82610b20565b9050919050565b610b5b81610b40565b8114610b6657600080fd5b50565b600081359050610b7881610b52565b92915050565b6000819050919050565b610b9181610b7e565b8114610b9c57600080fd5b50565b600081359050610bae81610b88565b92915050565b60008060408385031215610bcb57610bca610b1b565b5b6000610bd985828601610b69565b9250506020610bea85828601610b9f565b9150509250929050565b60008115159050919050565b610c0981610bf4565b82525050565b6000602082019050610c246000830184610c00565b92915050565b610c3381610b7e565b82525050565b6000602082019050610c4e6000830184610c2a565b92915050565b600080600060608486031215610c6d57610c6c610b1b565b5b6000610c7b86828701610b69565b9350506020610c8c86828701610b69565b9250506040610c9d86828701610b9f565b9150509250925092565b600060ff82169050919050565b610cbd81610ca7565b82525050565b6000602082019050610cd86000830184610cb4565b92915050565b610ce781610b40565b82525050565b6000602082019050610d026000830184610cde565b92915050565b600060208284031215610d1e57610d1d610b1b565b5b6000610d2c84828501610b69565b91505092915050565b60008060408385031215610d4c57610d4b610b1b565b5b6000610d5a85828601610b69565b9250506020610d6b85828601610b69565b9150509250929050565b7f4e487b7100000000000000000000000000000000000000000000000000000000600052602260045260246000fd5b60006002820490506001821680610dbc57607f821691505b602082108103610dcf57610dce610d75565b5b50919050565b6000606082019050610dea6000830186610cde565b610df76020830185610c2a565b610e046040830184610c2a565b949350505050565b7f4e487b7100000000000000000000000000000000000000000000000000000000600052601160045260246000fd5b6000610e4682610b7e565b9150610e5183610b7e565b9250828201905080821115610e6957610e68610e0c565b5b9291505056fea2646970667358221220ce81cffa8d7f231436e604003bc873a4a56499f3379bcc1e332bf2e4e949f5f964736f6c63430008140033a264697066735822122064ea02678888d70c25e3f4001fb4a81f90a619daab499e88fb868320729da95a64736f6c63430008140033",
  "linkReferences": {},
  "deployedLinkReferences": {}
}