{
  "_format": "hh-sol-artifact-1",
  "contractName": "Vault",
  "sourceName": "contracts/VaultContract.sol",
  "abi": [
    {
      "inputs": [
        {
          "internalType": "address",
          "name": "_token",
          "type": "address"
        },
        {
          "internalType": "address",
          "name": "_founder",
          "type": "address"
        },
        {
          "internalType": "string",
          "name": "m1",
          "type": "string"
        },
        {
          "internalType": "string",
          "name": "m2",
          "type": "string"
        },
        {
          "internalType": "string",
          "name": "m3",
          "type": "string"
        }
      ],
      "stateMutability": "nonpayable",
      "type": "constructor"
    },
    {
      "anonymous": false,
      "inputs": [
        {
          "indexed": false,
          "internalType": "uint256",
          "name": "amount",
          "type": "uint256"
        },
        {
          "indexed": false,
          "internalType": "string",
          "name": "milestone",
          "type": "string"
        }
      ],
      "name": "CoinsUnlocked",
      "type": "event"
    },
    {
      "inputs": [],
      "name": "founder",
      "outputs": [
        {
          "internalType": "address",
          "name": "",
          "type": "address"
        }
      ],
      "stateMutability": "view",
      "type": "function"
    },
    {
      "inputs": [],
      "name": "getLockedAmount",
      "outputs": [
        {
          "internalType": "uint256",
          "name": "",
          "type": "uint256"
        }
      ],
      "stateMutability": "view",
      "type": "function"
    },
    {
      "inputs": [
        {
          "internalType": "uint256",
          "name": "amount",
          "type": "uint256"
        }
      ],
      "name": "lockCoins",
      "outputs": [],
      "stateMutability": "nonpayable",
      "type": "function"
    },
    {
      "inputs": [
        {
          "internalType": "uint256",
          "name": "",
          "type": "uint256"
        }
      ],
      "name": "milestones",
      "outputs": [
        {
          "internalType": "string",
          "name": "description",
          "type": "string"
        },
        {
          "internalType": "uint256",
          "name": "unlockPercent",
          "type": "uint256"
        },
        {
          "internalType": "bool",
          "name": "completed",
          "type": "bool"
        }
      ],
      "stateMutability": "view",
      "type": "function"
    },
    {
      "inputs": [],
      "name": "token",
      "outputs": [
        {
          "internalType": "address",
          "name": "",
          "type": "address"
        }
      ],
      "stateMutability": "view",
      "type": "function"
    },
    {
      "inputs": [],
      "name": "totalLocked",
      "outputs": [
        {
          "internalType": "uint256",
          "name": "",
          "type": "uint256"
        }
      ],
      "stateMutability": "view",
      "type": "function"
    },
    {
      "inputs": [
        {
          "internalType": "uint256",
          "name": "milestoneIndex",
          "type": "uint256"
        }
      ],
      "name": "unlockMilestone",
      "outputs": [],
      "stateMutability": "nonpayable",
      "type": "function"
    }
  ],
  "bytecode": "0x60806040523480156200001157600080fd5b50604051620013ec380380620013ec83398181016040528101906200003791906200043b565b84600160006101000a81548173ffffffffffffffffffffffffffffffffffffffff021916908373ffffffffffffffffffffffffffffffffffffffff160217905550836000806101000a81548173ffffffffffffffffffffffffffffffffffffffff021916908373ffffffffffffffffffffffffffffffffffffffff160217905550604051806060016040528084815260200160148152602001600015158152506003600060038110620000ef57620000ee62000520565b5b6003020160008201518160000190816200010a91906200079a565b506020820151816001015560408201518160020160006101000a81548160ff0219169083151502179055509050506040518060600160405280838152602001601e81526020016000151581525060036001600381106200016f576200016e62000520565b5b6003020160008201518160000190816200018a91906200079a565b506020820151816001015560408201518160020160006101000a81548160ff021916908315150217905550905050604051806060016040528082815260200160328152602001600015158152506003600260038110620001ef57620001ee62000520565b5b6003020160008201518160000190816200020a91906200079a565b506020820151816001015560408201518160020160006101000a81548160ff021916908315150217905550905050505050505062000881565b6000604051905090565b600080fd5b600080fd5b600073ffffffffffffffffffffffffffffffffffffffff82169050919050565b6000620002848262000257565b9050919050565b620002968162000277565b8114620002a257600080fd5b50565b600081519050620002b6816200028b565b92915050565b600080fd5b600080fd5b6000601f19601f8301169050919050565b7f4e487b7100000000000000000000000000000000000000000000000000000000600052604160045260246000fd5b6200031182620002c6565b810181811067ffffffffffffffff82111715620003335762000332620002d7565b5b80604052505050565b60006200034862000243565b905062000356828262000306565b919050565b600067ffffffffffffffff821115620003795762000378620002d7565b5b6200038482620002c6565b9050602081019050919050565b60005b83811015620003b157808201518184015260208101905062000394565b60008484015250505050565b6000620003d4620003ce846200035b565b6200033c565b905082815260208101848484011115620003f357620003f2620002c1565b5b6200040084828562000391565b509392505050565b600082601f83011262000420576200041f620002bc565b5b815162000432848260208601620003bd565b91505092915050565b600080600080600060a086880312156200045a57620004596200024d565b5b60006200046a88828901620002a5565b95505060206200047d88828901620002a5565b945050604086015167ffffffffffffffff811115620004a157620004a062000252565b5b620004af8882890162000408565b935050606086015167ffffffffffffffff811115620004d357620004d262000252565b5b620004e18882890162000408565b925050608086015167ffffffffffffffff81111562000505576200050462000252565b5b620005138882890162000408565b9150509295509295909350565b7f4e487b7100000000000000000000000000000000000000000000000000000000600052603260045260246000fd5b600081519050919050565b7f4e487b7100000000000000000000000000000000000000000000000000000000600052602260045260246000fd5b60006002820490506001821680620005a257607f821691505b602082108103620005b857620005b76200055a565b5b50919050565b60008190508160005260206000209050919050565b60006020601f8301049050919050565b600082821b905092915050565b600060088302620006227fffffffffffffffffffffffffffffffffffffffffffffffffffffffffffffffff82620005e3565b6200062e8683620005e3565b95508019841693508086168417925050509392505050565b6000819050919050565b6000819050919050565b60006200067b620006756200066f8462000646565b62000650565b62000646565b9050919050565b6000819050919050565b62000697836200065a565b620006af620006a68262000682565b848454620005f0565b825550505050565b600090565b620006c6620006b7565b620006d38184846200068c565b505050565b5b81811015620006fb57620006ef600082620006bc565b600181019050620006d9565b5050565b601f8211156200074a576200071481620005be565b6200071f84620005d3565b810160208510156200072f578190505b620007476200073e85620005d3565b830182620006d8565b50505b505050565b600082821c905092915050565b60006200076f600019846008026200074f565b1980831691505092915050565b60006200078a83836200075c565b9150826002028217905092915050565b620007a5826200054f565b67ffffffffffffffff811115620007c157620007c0620002d7565b5b620007cd825462000589565b620007da828285620006ff565b600060209050601f831160018114620008125760008415620007fd578287015190505b6200080985826200077c565b86555062000879565b601f1984166200082286620005be565b60005b828110156200084c5784890151825560018201915060208501945060208101905062000825565b868310156200086c578489015162000868601f8916826200075c565b8355505b6001600288020188555050505b505050505050565b610b5b80620008916000396000f3fe608060405234801561001057600080fd5b506004361061007d5760003560e01c80637dc5b72d1161005b5780637dc5b72d146100dc578063d0c2622d146100f8578063e89e4ed614610114578063fc0c546a146101465761007d565b8063252bc886146100825780634d853ee5146100a057806356891412146100be575b600080fd5b61008a610164565b60405161009791906105a3565b60405180910390f35b6100a8610207565b6040516100b591906105ff565b60405180910390f35b6100c661022b565b6040516100d391906105a3565b60405180910390f35b6100f660048036038101906100f1919061064b565b610231565b005b610112600480360381019061010d919061064b565b6102f0565b005b61012e6004803603810190610129919061064b565b61049f565b60405161013d93929190610723565b60405180910390f35b61014e610564565b60405161015b91906105ff565b60405180910390f35b6000600160009054906101000a900473ffffffffffffffffffffffffffffffffffffffff1673ffffffffffffffffffffffffffffffffffffffff166370a08231306040518263ffffffff1660e01b81526004016101c191906105ff565b602060405180830381865afa1580156101de573d6000803e3d6000fd5b505050506040513d601f19601f820116820180604052508101906102029190610776565b905090565b60008054906101000a900473ffffffffffffffffffffffffffffffffffffffff1681565b60025481565b600160009054906101000a900473ffffffffffffffffffffffffffffffffffffffff1673ffffffffffffffffffffffffffffffffffffffff166323b872dd3330846040518463ffffffff1660e01b8152600401610290939291906107a3565b6020604051808303816000875af11580156102af573d6000803e3d6000fd5b505050506040513d601f19601f820116820180604052508101906102d39190610806565b5080600260008282546102e69190610862565b9250508190555050565b60006003826003811061030657610305610896565b5b6003020190508060020160009054906101000a900460ff161561035e576040517f08c379a000000000000000000000000000000000000000000000000000000000815260040161035590610911565b60405180910390fd5b60018160020160006101000a81548160ff0219169083151502179055506000606482600101546002546103919190610931565b61039b91906109a2565b9050600160009054906101000a900473ffffffffffffffffffffffffffffffffffffffff1673ffffffffffffffffffffffffffffffffffffffff1663a9059cbb60008054906101000a900473ffffffffffffffffffffffffffffffffffffffff16836040518363ffffffff1660e01b815260040161041a9291906109d3565b6020604051808303816000875af1158015610439573d6000803e3d6000fd5b505050506040513d601f19601f8201168201806040525081019061045d9190610806565b507f8410b5d97f04bcc23adf7bed37a3d1f9afe2b4e328deced2867ae410203ee2c78183600001604051610492929190610af5565b60405180910390a1505050565b600381600381106104af57600080fd5b600302016000915090508060000180546104c890610a2b565b80601f01602080910402602001604051908101604052809291908181526020018280546104f490610a2b565b80156105415780601f1061051657610100808354040283529160200191610541565b820191906000526020600020905b81548152906001019060200180831161052457829003601f168201915b5050505050908060010154908060020160009054906101000a900460ff16905083565b600160009054906101000a900473ffffffffffffffffffffffffffffffffffffffff1681565b6000819050919050565b61059d8161058a565b82525050565b60006020820190506105b86000830184610594565b92915050565b600073ffffffffffffffffffffffffffffffffffffffff82169050919050565b60006105e9826105be565b9050919050565b6105f9816105de565b82525050565b600060208201905061061460008301846105f0565b92915050565b600080fd5b6106288161058a565b811461063357600080fd5b50565b6000813590506106458161061f565b92915050565b6000602082840312156106615761066061061a565b5b600061066f84828501610636565b91505092915050565b600081519050919050565b600082825260208201905092915050565b60005b838110156106b2578082015181840152602081019050610697565b60008484015250505050565b6000601f19601f8301169050919050565b60006106da82610678565b6106e48185610683565b93506106f4818560208601610694565b6106fd816106be565b840191505092915050565b60008115159050919050565b61071d81610708565b82525050565b6000606082019050818103600083015261073d81866106cf565b905061074c6020830185610594565b6107596040830184610714565b949350505050565b6000815190506107708161061f565b92915050565b60006020828403121561078c5761078b61061a565b5b600061079a84828501610761565b91505092915050565b60006060820190506107b860008301866105f0565b6107c560208301856105f0565b6107d26040830184610594565b949350505050565b6107e381610708565b81146107ee57600080fd5b50565b600081519050610800816107da565b92915050565b60006020828403121561081c5761081b61061a565b5b600061082a848285016107f1565b91505092915050565b7f4e487b7100000000000000000000000000000000000000000000000000000000600052601160045260246000fd5b600061086d8261058a565b91506108788361058a565b92508282019050808211156108905761088f610833565b5b92915050565b7f4e487b7100000000000000000000000000000000000000000000000000000000600052603260045260246000fd5b7f416c726561647920756e6c6f636b656400000000000000000000000000000000600082015250565b60006108fb601083610683565b9150610906826108c5565b602082019050919050565b6000602082019050818103600083015261092a816108ee565b9050919050565b600061093c8261058a565b91506109478361058a565b92508282026109558161058a565b9150828204841483151761096c5761096b610833565b5b5092915050565b7f4e487b7100000000000000000000000000000000000000000000000000000000600052601260045260246000fd5b60006109ad8261058a565b91506109b88361058a565b9250826109c8576109c7610973565b5b828204905092915050565b60006040820190506109e860008301856105f0565b6109f56020830184610594565b9392505050565b7f4e487b7100000000000000000000000000000000000000000000000000000000600052602260045260246000fd5b60006002820490506001821680610a4357607f821691505b602082108103610a5657610a556109fc565b5b50919050565b60008190508160005260206000209050919050565b60008154610a7e81610a2b565b610a888186610683565b94506001821660008114610aa35760018114610ab957610aec565b60ff198316865281151560200286019350610aec565b610ac285610a5c565b60005b83811015610ae457815481890152600182019150602081019050610ac5565b808801955050505b50505092915050565b6000604082019050610b0a6000830185610594565b8181036020830152610b1c8184610a71565b9050939250505056fea2646970667358221220db5565f4e410709447b6f7d5c43d9e3e6146d6a9af1bbed0441ca0d160fbbf6d64736f6c63430008140033",
  "linkReferences": {},
  "deployedLinkReferences": {}
}